:020000040000FA
:100000000C945D000C9485000C9485000C94850084
:100010000C9485000C9485000C9485000C9485004C
:100020000C9485000C9485000C9485000C9485003C
:100030000C9485000C9485000C9485000C9485002C
:100040000C945B030C9485000C94CB030C94A503D7
:100050000C9485000C9485000C9485000C9485000C
:100060000C9485000C94850000000008000201003B
:100070000003040700000000000000000000000072
:10008000250028002B0000000000240027002A0083
:10009000040404040404040402020202020203032E
:1000A0000303030301020408102040800102040836
:1000B0001020010204081020AB0511241FBECFEF51
:1000C000D8E0DEBFCDBF11E0A0E0B1E0E6E6F4E1AC
:1000D00002C005900D92AA31B107D9F721E0AAE13B
:1000E000B1E001C01D92A43CB207E1F710E0CDE5FC
:1000F000D0E004C02197FE010E942E08CC35D10724
:10010000C9F70E94FD030C94310A0C94000090E0A2
:10011000FC01EC55FF4F249180579F4FFC018491C7
:10012000882399F090E0880F991FFC01EA57FF4F50
:10013000A591B491FC01E458FF4F859194918FB73C
:10014000F894EC91E22BEC938FBF089590E0FC01C2
:10015000E859FF4F2491FC01EC55FF4F3491FC010D
:10016000E057FF4FE491EE23C9F0222339F023300A
:1001700001F1A8F4213019F1223029F1F0E0EE0F5D
:10018000FF1FE458FF4FA591B4918FB7F894EC91FD
:10019000611126C030953E233C938FBF08952730D0
:1001A000A9F02830C9F0243049F7809180008F7D74
:1001B00003C0809180008F7780938000DFCF84B56B
:1001C0008F7784BDDBCF84B58F7DFBCF8091B0006E
:1001D0008F778093B000D2CF8091B0008F7DF9CF20
:1001E0003E2BDACF1F93CF93DF93182FEB010E94A2
:1001F0008700209739F460E0812FDF91CF911F9124
:100200000C94A600CF3FD10511F461E0F5CFE12FAA
:10021000F0E0E859FF4FE491E33031F140F4E13090
:10022000B1F0E230E1F0C038D1057CF7E4CFE7303F
:1002300029F1E83059F1E430B1F780918000806213
:1002400080938000D0938B00C0938A0004C084B553
:10025000806884BDC7BDDF91CF911F91089584B59B
:10026000806284BDC8BDF7CF809180008068809394
:100270008000D0938900C0938800EDCF8091B000BA
:1002800080688093B000C093B300E5CF8091B00048
:1002900080628093B000C093B400DDCFAF92BF9274
:1002A000CF92DF92EF92FF920F931F93CF93DF9342
:1002B0006C017B018B01040F151FEB015E01AE1871
:1002C000BF08C017D10759F06991D601ED91FC9193
:1002D0000190F081E02DC6010995892B79F7C501C0
:1002E000DF91CF911F910F91FF90EF90DF90CF9012
:1002F000BF90AF900895FC01538D448D252F30E0C1
:10030000842F90E0821B930B541710F0CF96089522
:1003100001970895FC01918D828D981761F0A28D4F
:10032000AE0FBF2FB11D5D968C91928D9F5F9F7315
:10033000928F90E008958FEF9FEF08952FB7F89474
:1003400080911F0190912001A0912101B091220183
:100350002FBF80932B0190932C01A0932D01B0937C
:100360002E0183E291E00E948A0197FF26C02FB7F9
:10037000F89480911F0190912001A0912101B091EA
:1003800022012FBF40912B0150912C0160912D0132
:1003900070912E01841B950BA60BB70B4091270182
:1003A000509128016091290170912A0184179507C5
:1003B000A607B707B0F28FEF9FEF0895FC01918D6C
:1003C000828D981731F0828DE80FF11D858D90E0B8
:1003D00008958FEF9FEF0895FC01918D228D892F55
:1003E00090E0805C9F4F821B91098F73992708953D
:1003F00083E291E00E94EC0121E0892B09F420E0E6
:10040000822F089580E090E0892B29F00E94F80166
:1004100081110C9400000895FC01A48DA80FB92F40
:10042000B11DA35ABF4F2C91848D90E001968F731C
:100430009927848FA689B7892C93A089B1898C913B
:10044000837080648C93938D848D981306C002888A
:10045000F389E02D80818F7D80830895EF92FF9254
:100460000F931F93CF93DF93EC0181E0888F9B8DD7
:100470008C8D98131AC0E889F989808185FF15C091
:100480009FB7F894EE89FF896083E889F9898081B4
:100490008370806480839FBF81E090E0DF91CF9183
:1004A0001F910F91FF90EF900895F62E0B8D10E0A5
:1004B0000F5F1F4F0F731127E02E8C8D8E110CC014
:1004C0000FB607FCFACFE889F989808185FFF5CF5F
:1004D000CE010E940C02F1CFEB8DEC0FFD2FF11D30
:1004E000E35AFF4FF0829FB7F8940B8FEA89FB899C
:1004F00080818062CFCFCF93DF93EC01888D8823FA
:10050000B9F0AA89BB89E889F9898C9185FD03C076
:10051000808186FD0DC00FB607FCF7CF8C9185FF5B
:10052000F2CF808185FFEDCFCE010E940C02E9CF92
:10053000DF91CF9108950F931F93CF93DF93EC0139
:1005400088819981009759F02A813B8126173707C6
:1005500030F081E0DF91CF911F910F9108958B01D1
:100560006F5F7F4F0E945909009759F099838883E4
:100570001B830A832C813D81232B59F7FC011082B8
:10058000E8CF80E0E7CFCF93DF93EC0188819981BA
:10059000009711F00E94D008198218821D821C82D7
:1005A0001B821A82DF91CF910895CF93DF93EC01E4
:1005B00070E060E00E949B02811105C0CE01DF91D6
:1005C000CF910C94C3021D821C8268E171E0888186
:1005D0009981DF91CF910C942A0A9F92AF92BF929A
:1005E000CF92DF92EF92FF920F931F93CF93DF93FF
:1005F000EC016B015A0179012417350720F48B2D8A
:100600005901E42EF82E198218821B821A821D824B
:100610001C82CE010E94D502D60114960D911C9128
:10062000A016B10658F5E016F10608F48701D601C8
:10063000ED91FC911197E00FF11F90801082ED90E9
:10064000FC90EA0CFB1CE114F10471F0F70101903D
:100650000020E9F731975F01AE18BF08B501CE0160
:100660000E949B02811117C0CE010E94C302F601B5
:1006700080819181080F191FD8019C92CE01DF91D2
:10068000CF911F910F91FF90EF90DF90CF90BF908F
:10069000AF909F900895BD82AC82B7018881998107
:1006A0000E942A0AE4CFFC0180819181009711F019
:1006B0000C94D00808951F920F920FB60F92112438
:1006C0002F933F938F939F93AF93BF9380911F017D
:1006D00090912001A0912101B091220130911E0141
:1006E00023E0230F2D3758F50196A11DB11D20934E
:1006F0001E0180931F0190932001A0932101B093CC
:10070000220180911A0190911B01A0911C01B091CE
:100710001D010196A11DB11D80931A0190931B012B
:10072000A0931C01B0931D01BF91AF919F918F9138
:100730003F912F910F900FBE0F901F90189526E8B4
:10074000230F0296A11DB11DD2CF1F920F920FB69B
:100750000F9211242F933F934F935F936F937F9347
:100760008F939F93AF93BF93EF93FF9383E291E0B7
:100770000E940C02FF91EF91BF91AF919F918F91D9
:100780007F916F915F914F913F912F910F900FBE8D
:100790000F901F9018951F920F920FB60F92112471
:1007A0002F938F939F93EF93FF93E0913301F091F9
:1007B00034018081E0913901F0913A0182FD1BC042
:1007C000908180913C018F5F8F7320913D01821752
:1007D00041F0E0913C01F0E0ED5DFE4F958F80939C
:1007E0003C01FF91EF919F918F912F910F900FBE40
:1007F0000F901F9018958081F4CFCF93DF93CDB7E2
:10080000DEB72C970FB6F894DEBF0FBECDBF78943D
:1008100084B5826084BD84B5816084BD85B5826005
:1008200085BD85B5816085BD80916E0081608093B6
:100830006E0010928100809181008260809381001F
:10084000809181008160809381008091800081602F
:10085000809380008091B10084608093B10080918A
:10086000B00081608093B00080917A0084608093B2
:100870007A0080917A00826080937A0080917A0079
:10088000816080937A0080917A00806880937A00FA
:100890001092C10083E00E94870084E00E948700DC
:1008A00085E00E94870087E00E94870088E00E9420
:1008B000870089E00E94870061E085E00E94A60031
:1008C00061E089E00E94A600E0913301F0913401DB
:1008D00082E08083E0912F01F09130011082E0915D
:1008E0003101F091320180E1808310923B01E0916F
:1008F0003701F091380186E08083E0913501F09175
:100900003601808180618083E0913501F09136016C
:10091000808188608083E0913501F091360180818B
:1009200080688083E0913501F091360180818F7D70
:1009300080838CE3C82ED12CE12CF12C83E291E052
:100940000E94EC01181619060CF0DAC018861F82F6
:100950001A8619861C861B86CE0107960E94D50230
:100960000E949E010B851C8597FD1CC08A30910555
:10097000C9F089831A820F5F1F4FB801CE01079615
:100980000E949B02882361F32F8138858B859C858B
:10099000BE016F5F7F4F820F931F0E942A0A1C8740
:1009A0000B87DECF012B09F4A7C00F8118856CE2FD
:1009B00070E0C8010E941F0A009709F49DC05C0105
:1009C000A01AB10A8FEFA816B80609F495C09501D0
:1009D00050E040E0BE01695F7F4FCE0101960E946A
:1009E000ED0289819A81009709F497C00E94D80589
:1009F0008B01CE0101960E9453032B853C85A501F6
:100A00004F5F5F4FBE01695F7F4FCE0101960E942D
:100A1000ED0289819A81812C912C5401009719F063
:100A20000E94D8054B01CE0101960E9453032EEF80
:100A300031E0D8010E942708A70196010E940F0704
:100A4000CA01B9016F5F710981099109072E000C74
:100A5000880B990B0E9416062BE736E042EA5EE30C
:100A60000E9451060E9496072B011B010E5111098D
:100A70009EE1891A9108009FB001019F700D700DD1
:100A80001124889CC001899C900D900D1124680F41
:100A9000791F072E000C880B990B0E9416060E94E6
:100AA000D2070E949607DB012FEF30E00E94270853
:100AB000A70196010E940F0749018901121613062A
:100AC00084F561E083E00E94A60060E084E00E947B
:100AD000A600B80185E00E94F2001214130474F518
:100AE00061E087E00E94A60060E088E00E94A60026
:100AF000B10189E00E94F200CE0107960E945303E3
:100B000080E090E0892B09F419CF0E94F801882336
:100B100009F414CF0E94000011CF60E070E0CB0117
:100B200067CF60E083E00E94A60061E084E00E945D
:100B3000A6000027112708191909CBCF60E087E02C
:100B40000E94A60061E088E00E94A60022243324CF
:100B500024183508CDCFE3E2F1E01382128288EE4B
:100B600093E0A0E0B0E084839583A683B7838AE016
:100B700091E09183808385EC90E09587848784EC75
:100B800090E09787868780EC90E0918B808B81EC5A
:100B900090E0938B828B82EC90E0958B848B86EC3B
:100BA00090E0978B868B118E128E138E148E089583
:100BB0001F93FC0199278827BC01E89411911032FA
:100BC000E9F3193010F01E30C8F31B3251F01D321A
:100BD00049F4689406C00E94FF05610F711D811DD4
:100BE000911D119110531A30B0F33EF490958095F9
:100BF000709561957F4F8F4F9F4F1F910895592F8B
:100C0000482F372F262F660F771F881F991F660FD3
:100C1000771F881F991F620F731F841F951F660F10
:100C2000771F881F991F0895E89409C097FB3EF429
:100C300090958095709561957F4F8F4F9F4F992329
:100C4000A9F0F92F96E9BB279395F69587957795A7
:100C50006795B795F111F8CFFAF4BB0F11F460FF67
:100C60001BC06F5F7F4F8F4F9F4F16C0882311F0BF
:100C700096E911C0772321F09EE8872F762F05C0D3
:100C8000662371F096E8862F70E060E02AF09A956E
:100C9000660F771F881FDAF7880F9695879597F963
:100CA00008950E9464060C94D5060E94C70638F089
:100CB0000E94CE0620F0952311F00C94BE060C94F1
:100CC000C40611240C9409070E94E60670F3959F50
:100CD000C1F3950F50E0551F629FF001729FBB2733
:100CE000F00DB11D639FAA27F00DB11DAA1F649FCF
:100CF0006627B00DA11D661F829F2227B00DA11D82
:100D0000621F739FB00DA11D621F839FA00D611D07
:100D1000221F749F3327A00D611D231F849F600D28
:100D2000211D822F762F6A2F11249F5750409AF051
:100D3000F1F088234AF0EE0FFF1FBB1F661F771FDD
:100D4000881F91505040A9F79E3F510580F00C94A8
:100D5000BE060C9409075F3FE4F3983ED4F38695F2
:100D600077956795B795F795E7959F5FC1F7FE2B48
:100D7000880F911D9695879597F9089597F99F6724
:100D800080E870E060E008959FEF80EC0895002413
:100D90000A941616170618060906089500240A94E0
:100DA00012161306140605060895092E0394000C66
:100DB00011F4882352F0BB0F40F4BF2B11F460FFF5
:100DC00004C06F5F7F4F8F4F9F4F089557FD90581E
:100DD000440F551F59F05F3F71F04795880F97FBFF
:100DE000991F61F09F3F79F08795089512161306B9
:100DF0001406551FF2CF4695F1DF08C016161706E8
:100E00001806991FF1CF869571056105089408951C
:100E1000E894BB2766277727CB0197F90895052E1D
:100E200097FB1EF400940E94260757FD07D00E94EE
:100E3000650707FC03D04EF40C94260750954095A7
:100E4000309521953F4F4F4F5F4F08959095809576
:100E5000709561957F4F8F4F9F4F08952F923F92CE
:100E60004F925F926F927F928F929F92AF92BF92BA
:100E7000CF92DF92EF92FF920F931F93CF93DF9366
:100E8000CDB7DEB7CA1BDB0B0FB6F894DEBF0FBEC3
:100E9000CDBF09942A88398848885F846E847D8410
:100EA0008C849B84AA84B984C884DF80EE80FD8012
:100EB0000C811B81AA81B981CE0FD11D0FB6F89488
:100EC000DEBF0FBECDBFED010895A1E21A2EAA1B11
:100ED000BB1BFD010DC0AA1FBB1FEE1FFF1FA217EA
:100EE000B307E407F50720F0A21BB30BE40BF50BE7
:100EF000661F771F881F991F1A9469F76095709570
:100F0000809590959B01AC01BD01CF010895A29FF2
:100F1000B001B39FC001A39F700D811D1124911DCD
:100F2000B29F700D811D1124911D08950E949D078F
:100F30006894B1110C94090708950E94EE0688F098
:100F40009F5798F0B92F9927B751B0F0E1F0660F8D
:100F5000771F881F991F1AF0BA95C9F714C0B130CE
:100F600091F00E940807B1E008950C940807672FDC
:100F7000782F8827B85F39F0B93FCCF386957795FD
:100F80006795B395D9F73EF49095809570956195E6
:100F90007F4F8F4F9F4F089519F416F40C94C40699
:100FA0000C9412080E94EE06B8F39923C9F3B6F325
:100FB0009F57550B87FF0E9420080024A0E640EAB7
:100FC000900180585695979528F4805C660F771F9E
:100FD000881F20F026173707480730F4621B730B71
:100FE000840B202931294A2BA69517940794202594
:100FF00031254A2758F7660F771F881F20F02617DC
:101000003707480730F4620B730B840B200D311D3A
:10101000411DA09581F7B901842F9158880F9695AD
:10102000879508959F3F31F0915020F487957795EB
:101030006795B795880F911D9695879597F90895AF
:1010400091505040660F771F881FD2F708950E9475
:101050008707B7FF0895821B930B0895EE0FFF1FBC
:101060000590F491E02D09940F931F93CF93DF9394
:101070008230910510F482E090E0E091C201F0919D
:10108000C30130E020E0B0E0A0E0309799F42115F2
:10109000310509F44AC0281B390B24303105D8F535
:1010A0008A819B816115710589F1FB01938382839C
:1010B000FE0111C0408151810281138148175907F7
:1010C000E0F04817590799F4109761F012960C93C5
:1010D000129713961C933296CF01DF91CF911F91F7
:1010E0000F9108950093C2011093C301F4CF21150D
:1010F000310551F04217530738F0A901DB019A017D
:10110000BD01DF01F801C1CFEF01F9CF9093C30119
:101110008093C201CDCFFE01E20FF31F8193919323
:101120002250310939832883D7CF2091C0013091D3
:10113000C101232B41F4209102013091030130932E
:10114000C1012093C00120910001309101012115BE
:10115000310541F42DB73EB740910401509105018E
:10116000241B350BE091C001F091C101E217F30798
:10117000A0F42E1B3F0B2817390778F0AC014E5F07
:101180005F4F2417350748F04E0F5F1F5093C10182
:101190004093C001819391939FCFF0E0E0E09CCF1A
:1011A000CF93DF930097E9F0FC013297138212820C
:1011B000A091C201B091C301ED0130E020E0109791
:1011C000A1F420813181820F931F2091C0013091C1
:1011D000C1012817390709F061C0F093C101E093FC
:1011E000C001DF91CF910895EA01CE17DF07E8F53E
:1011F0004A815B819E0141155105B1F7E901FB83ED
:10120000EA8349915991C40FD51FEC17FD0761F48A
:10121000808191810296840F951FE90199838883CB
:10122000828193819B838A83F0E0E0E012968D9126
:101230009C9113970097B9F52D913C911197CD0191
:101240000296820F931F2091C0013091C10128178F
:10125000390739F6309751F51092C3011092C20147
:10126000B093C101A093C001BCCFD383C28340819E
:101270005181840F951FC817D90761F44E5F5F4FE6
:1012800088819981480F591F518340838A819B81AE
:10129000938382832115310509F0B0CFF093C30108
:1012A000E093C2019ECFFD01DC01C0CF1382128208
:1012B000D7CFB0E0A0E0EFE5F9E00C9430078C0167
:1012C000009751F4CB010E9434088C01C801CDB7BE
:1012D000DEB7E0E10C944C07FC01E60FF71F9C0120
:1012E00022503109E217F30708F49DC0D901CD91CE
:1012F000DC911197C617D70798F0C530D10530F3A8
:10130000CE0104978617970708F3C61BD70B2297C1
:10131000C193D1936D937C93CF010E94D008D6CF17
:101320005B01AC1ABD0A4C018C0E9D1EA091C2013E
:10133000B091C301512C412CF12CE12C109731F5C7
:101340008091C0019091C1018815990509F05CC098
:101350004616570608F058C080910001909101018F
:10136000009741F48DB79EB740910401509105015B
:10137000841B950BE817F90708F055C0F093C101DD
:10138000E093C001F90171836083A0CF8D919C919E
:10139000119712966C90129713967C901397A8153C
:1013A000B90559F56C0142E0C40ED11CCA14DB0426
:1013B00020F1AC014A195B09DA011296159780F009
:1013C0006282738251834083D9016D937C93E114CF
:1013D000F10471F0D7011396FC93EE93129776CF38
:1013E00022968C0F9D1FF90191838083F301EFCF2B
:1013F000F093C301E093C20169CF4816590608F47F
:101400002C017D01D3019ACFCB010E9434087C01CD
:10141000009749F0AE01B8010E94160AC8010E9467
:10142000D008870153CF10E000E050CFFB01DC0172
:1014300002C001900D9241505040D8F70895FC0130
:101440008191861721F08823D9F79927089531973C
:10145000CF010895FB01DC0101900D920020E1F71E
:101460000895F894FFCF0000C40180000000000040
:101470002E024E017B017B02EC018A01DE0100009D
:107E0000112484B714BE81FFF0D085E080938100F7
:107E100082E08093C00088E18093C10086E0809377
:107E2000C20080E18093C4008EE0C9D0259A86E02C
:107E300020E33CEF91E0309385002093840096BBD3
:107E4000B09BFECF1D9AA8958150A9F7CC24DD24C4
:107E500088248394B5E0AB2EA1E19A2EF3E0BF2EE7
:107E6000A2D0813461F49FD0082FAFD0023811F036
:107E7000013811F484E001C083E08DD089C08234E0
:107E800011F484E103C0853419F485E0A6D080C0E4
:107E9000853579F488D0E82EFF2485D0082F10E0AE
:107EA000102F00270E291F29000F111F8ED06801E7
:107EB0006FC0863521F484E090D080E0DECF843638
:107EC00009F040C070D06FD0082F6DD080E0C81688
:107ED00080E7D80618F4F601B7BEE895C0E0D1E017
:107EE00062D089930C17E1F7F0E0CF16F0E7DF06D8
:107EF00018F0F601B7BEE89568D007B600FCFDCFD4
:107F0000A601A0E0B1E02C9130E011968C91119780
:107F100090E0982F8827822B932B1296FA010C0160
:107F200087BEE89511244E5F5F4FF1E0A038BF0790
:107F300051F7F601A7BEE89507B600FCFDCF97BE46
:107F4000E89526C08437B1F42ED02DD0F82E2BD052
:107F50003CD0F601EF2C8F010F5F1F4F84911BD097
:107F6000EA94F801C1F70894C11CD11CFA94CF0C13
:107F7000D11C0EC0853739F428D08EE10CD085E9AC
:107F80000AD08FE07ACF813511F488E018D01DD067
:107F900080E101D065CF982F8091C00085FFFCCF94
:107FA0009093C60008958091C00087FFFCCF809118
:107FB000C00084FD01C0A8958091C6000895E0E648
:107FC000F0E098E1908380830895EDDF803219F02E
:107FD00088E0F5DFFFCF84E1DECF1F93182FE3DFCA
:107FE0001150E9F7F2DF1F91089580E0E8DFEE27F6
:047FF000FF270994CA
:027FFE00040479
:00000001FF
